{
  "_format": "hh-sol-artifact-1",
  "contractName": "MyEpicNFT",
  "sourceName": "contracts/MyEpicNFT.sol",
  "abi": [
    {
      "inputs": [],
      "stateMutability": "nonpayable",
      "type": "constructor"
    },
    {
      "anonymous": false,
      "inputs": [
        {
          "indexed": true,
          "internalType": "address",
          "name": "owner",
          "type": "address"
        },
        {
          "indexed": true,
          "internalType": "address",
          "name": "approved",
          "type": "address"
        },
        {
          "indexed": true,
          "internalType": "uint256",
          "name": "tokenId",
          "type": "uint256"
        }
      ],
      "name": "Approval",
      "type": "event"
    },
    {
      "anonymous": false,
      "inputs": [
        {
          "indexed": true,
          "internalType": "address",
          "name": "owner",
          "type": "address"
        },
        {
          "indexed": true,
          "internalType": "address",
          "name": "operator",
          "type": "address"
        },
        {
          "indexed": false,
          "internalType": "bool",
          "name": "approved",
          "type": "bool"
        }
      ],
      "name": "ApprovalForAll",
      "type": "event"
    },
    {
      "anonymous": false,
      "inputs": [
        {
          "indexed": true,
          "internalType": "address",
          "name": "from",
          "type": "address"
        },
        {
          "indexed": true,
          "internalType": "address",
          "name": "to",
          "type": "address"
        },
        {
          "indexed": true,
          "internalType": "uint256",
          "name": "tokenId",
          "type": "uint256"
        }
      ],
      "name": "Transfer",
      "type": "event"
    },
    {
      "anonymous": false,
      "inputs": [
        {
          "indexed": false,
          "internalType": "address",
          "name": "sender",
          "type": "address"
        },
        {
          "indexed": false,
          "internalType": "uint256",
          "name": "tokenId",
          "type": "uint256"
        }
      ],
      "name": "newEpicNFTMinted",
      "type": "event"
    },
    {
      "inputs": [
        {
          "internalType": "address",
          "name": "to",
          "type": "address"
        },
        {
          "internalType": "uint256",
          "name": "tokenId",
          "type": "uint256"
        }
      ],
      "name": "approve",
      "outputs": [],
      "stateMutability": "nonpayable",
      "type": "function"
    },
    {
      "inputs": [
        {
          "internalType": "address",
          "name": "owner",
          "type": "address"
        }
      ],
      "name": "balanceOf",
      "outputs": [
        {
          "internalType": "uint256",
          "name": "",
          "type": "uint256"
        }
      ],
      "stateMutability": "view",
      "type": "function"
    },
    {
      "inputs": [
        {
          "internalType": "uint256",
          "name": "tokenId",
          "type": "uint256"
        }
      ],
      "name": "getApproved",
      "outputs": [
        {
          "internalType": "address",
          "name": "",
          "type": "address"
        }
      ],
      "stateMutability": "view",
      "type": "function"
    },
    {
      "inputs": [
        {
          "internalType": "address",
          "name": "owner",
          "type": "address"
        },
        {
          "internalType": "address",
          "name": "operator",
          "type": "address"
        }
      ],
      "name": "isApprovedForAll",
      "outputs": [
        {
          "internalType": "bool",
          "name": "",
          "type": "bool"
        }
      ],
      "stateMutability": "view",
      "type": "function"
    },
    {
      "inputs": [],
      "name": "makeAnEpicNFT",
      "outputs": [],
      "stateMutability": "nonpayable",
      "type": "function"
    },
    {
      "inputs": [],
      "name": "maxSupply",
      "outputs": [
        {
          "internalType": "uint256",
          "name": "",
          "type": "uint256"
        }
      ],
      "stateMutability": "view",
      "type": "function"
    },
    {
      "inputs": [],
      "name": "name",
      "outputs": [
        {
          "internalType": "string",
          "name": "",
          "type": "string"
        }
      ],
      "stateMutability": "view",
      "type": "function"
    },
    {
      "inputs": [
        {
          "internalType": "uint256",
          "name": "tokenId",
          "type": "uint256"
        }
      ],
      "name": "ownerOf",
      "outputs": [
        {
          "internalType": "address",
          "name": "",
          "type": "address"
        }
      ],
      "stateMutability": "view",
      "type": "function"
    },
    {
      "inputs": [
        {
          "internalType": "uint256",
          "name": "_tokenId",
          "type": "uint256"
        }
      ],
      "name": "pickRandomColor",
      "outputs": [
        {
          "internalType": "string",
          "name": "",
          "type": "string"
        }
      ],
      "stateMutability": "view",
      "type": "function"
    },
    {
      "inputs": [
        {
          "internalType": "uint256",
          "name": "_tokenId",
          "type": "uint256"
        }
      ],
      "name": "pickRandomFirstWord",
      "outputs": [
        {
          "internalType": "string",
          "name": "",
          "type": "string"
        }
      ],
      "stateMutability": "view",
      "type": "function"
    },
    {
      "inputs": [
        {
          "internalType": "uint256",
          "name": "_tokenId",
          "type": "uint256"
        }
      ],
      "name": "pickRandomSecondWord",
      "outputs": [
        {
          "internalType": "string",
          "name": "",
          "type": "string"
        }
      ],
      "stateMutability": "view",
      "type": "function"
    },
    {
      "inputs": [
        {
          "internalType": "uint256",
          "name": "_tokenId",
          "type": "uint256"
        }
      ],
      "name": "pickRandomThirdWord",
      "outputs": [
        {
          "internalType": "string",
          "name": "",
          "type": "string"
        }
      ],
      "stateMutability": "view",
      "type": "function"
    },
    {
      "inputs": [
        {
          "internalType": "address",
          "name": "from",
          "type": "address"
        },
        {
          "internalType": "address",
          "name": "to",
          "type": "address"
        },
        {
          "internalType": "uint256",
          "name": "tokenId",
          "type": "uint256"
        }
      ],
      "name": "safeTransferFrom",
      "outputs": [],
      "stateMutability": "nonpayable",
      "type": "function"
    },
    {
      "inputs": [
        {
          "internalType": "address",
          "name": "from",
          "type": "address"
        },
        {
          "internalType": "address",
          "name": "to",
          "type": "address"
        },
        {
          "internalType": "uint256",
          "name": "tokenId",
          "type": "uint256"
        },
        {
          "internalType": "bytes",
          "name": "data",
          "type": "bytes"
        }
      ],
      "name": "safeTransferFrom",
      "outputs": [],
      "stateMutability": "nonpayable",
      "type": "function"
    },
    {
      "inputs": [
        {
          "internalType": "address",
          "name": "operator",
          "type": "address"
        },
        {
          "internalType": "bool",
          "name": "approved",
          "type": "bool"
        }
      ],
      "name": "setApprovalForAll",
      "outputs": [],
      "stateMutability": "nonpayable",
      "type": "function"
    },
    {
      "inputs": [
        {
          "internalType": "bytes4",
          "name": "interfaceId",
          "type": "bytes4"
        }
      ],
      "name": "supportsInterface",
      "outputs": [
        {
          "internalType": "bool",
          "name": "",
          "type": "bool"
        }
      ],
      "stateMutability": "view",
      "type": "function"
    },
    {
      "inputs": [],
      "name": "symbol",
      "outputs": [
        {
          "internalType": "string",
          "name": "",
          "type": "string"
        }
      ],
      "stateMutability": "view",
      "type": "function"
    },
    {
      "inputs": [
        {
          "internalType": "uint256",
          "name": "tokenId",
          "type": "uint256"
        }
      ],
      "name": "tokenURI",
      "outputs": [
        {
          "internalType": "string",
          "name": "",
          "type": "string"
        }
      ],
      "stateMutability": "view",
      "type": "function"
    },
    {
      "inputs": [],
      "name": "totalSupply",
      "outputs": [
        {
          "internalType": "uint256",
          "name": "",
          "type": "uint256"
        }
      ],
      "stateMutability": "view",
      "type": "function"
    },
    {
      "inputs": [
        {
          "internalType": "address",
          "name": "from",
          "type": "address"
        },
        {
          "internalType": "address",
          "name": "to",
          "type": "address"
        },
        {
          "internalType": "uint256",
          "name": "tokenId",
          "type": "uint256"
        }
      ],
      "name": "transferFrom",
      "outputs": [],
      "stateMutability": "nonpayable",
      "type": "function"
    }
  ],
  "bytecode": "0x608060405260405180610100016040528060d381526020016200486460d39139600890805190602001906200003692919062000c93565b506040518060800160405280605681526020016200493760569139600990805190602001906200006892919062000c93565b50604051806101a001604052806040518060400160405280600481526020017f477574730000000000000000000000000000000000000000000000000000000081525081526020016040518060400160405280600581526020017f426f6e657300000000000000000000000000000000000000000000000000000081525081526020016040518060400160405280600581526020017f486f6c657300000000000000000000000000000000000000000000000000000081525081526020016040518060400160405280600581526020017f427261696e00000000000000000000000000000000000000000000000000000081525081526020016040518060400160405280600581526020017f58796c656d00000000000000000000000000000000000000000000000000000081525081526020016040518060400160405280600681526020017f537769746368000000000000000000000000000000000000000000000000000081525081526020016040518060400160405280600981526020017f456d7074696e657373000000000000000000000000000000000000000000000081525081526020016040518060400160405280600681526020017f416e7468656d000000000000000000000000000000000000000000000000000081525081526020016040518060400160405280600781526020017f52656d61696e730000000000000000000000000000000000000000000000000081525081526020016040518060400160405280600881526020017f596f757273656c6600000000000000000000000000000000000000000000000081525081526020016040518060400160405280600581526020017f576f726d7300000000000000000000000000000000000000000000000000000081525081526020016040518060400160405280600881526020017f437269636b65747300000000000000000000000000000000000000000000000081525081526020016040518060400160405280600881526020017f3138776865656c73000000000000000000000000000000000000000000000000815250815250600a90600d6200038492919062000d24565b50604051806101a001604052806040518060400160405280600681526020017f447265616d73000000000000000000000000000000000000000000000000000081525081526020016040518060400160405280600781526020017f4f6d696e6f75730000000000000000000000000000000000000000000000000081525081526020016040518060400160405280600681526020017f486f6c6c6f77000000000000000000000000000000000000000000000000000081525081526020016040518060400160405280600681526020017f47656e746c65000000000000000000000000000000000000000000000000000081525081526020016040518060400160405280600481526020017f466f6c640000000000000000000000000000000000000000000000000000000081525081526020016040518060400160405280600b81526020017f57696c6c696e676e65737300000000000000000000000000000000000000000081525081526020016040518060400160405280600681526020017f496365626f78000000000000000000000000000000000000000000000000000081525081526020016040518060400160405280600581526020017f526964676500000000000000000000000000000000000000000000000000000081525081526020016040518060400160405280600581526020017f50756c736500000000000000000000000000000000000000000000000000000081525081526020016040518060400160405280600581526020017f506f69736500000000000000000000000000000000000000000000000000000081525081526020016040518060400160405280600481526020017f53696c6b0000000000000000000000000000000000000000000000000000000081525081526020016040518060400160405280600881526020017f4461726b6e65737300000000000000000000000000000000000000000000000081525081526020016040518060400160405280600581526020017f5370656564000000000000000000000000000000000000000000000000000000815250815250600b90600d620006a092919062000d24565b50604051806101a001604052806040518060400160405280600881526020017f437265617475726500000000000000000000000000000000000000000000000081525081526020016040518060400160405280600681526020017f486569676874000000000000000000000000000000000000000000000000000081525081526020016040518060400160405280600581526020017f5472756e6b00000000000000000000000000000000000000000000000000000081525081526020016040518060400160405280600b81526020017f56656e74696c6174696f6e00000000000000000000000000000000000000000081525081526020016040518060400160405280600581526020017f416761696e00000000000000000000000000000000000000000000000000000081525081526020016040518060400160405280600481526020017f557365640000000000000000000000000000000000000000000000000000000081525081526020016040518060400160405280600381526020017f486973000000000000000000000000000000000000000000000000000000000081525081526020016040518060400160405280600981526020017f4d6f6c6563756c6172000000000000000000000000000000000000000000000081525081526020016040518060400160405280600681526020017f52756e776179000000000000000000000000000000000000000000000000000081525081526020016040518060400160405280600781526020017f456c61737469630000000000000000000000000000000000000000000000000081525081526020016040518060400160405280600681526020017f537472756e67000000000000000000000000000000000000000000000000000081525081526020016040518060400160405280600881526020017f4265686f6d65746800000000000000000000000000000000000000000000000081525081526020016040518060400160405280600681526020017f48616c7665730000000000000000000000000000000000000000000000000000815250815250600c90600d620009bc92919062000d24565b506040518061010001604052806040518060400160405280600681526020017f6f72616e6765000000000000000000000000000000000000000000000000000081525081526020016040518060400160405280600681526020017f79656c6c6f77000000000000000000000000000000000000000000000000000081525081526020016040518060400160405280600381526020017f726564000000000000000000000000000000000000000000000000000000000081525081526020016040518060400160405280600481526020017f626c75650000000000000000000000000000000000000000000000000000000081525081526020016040518060400160405280600781526020017f233642354239350000000000000000000000000000000000000000000000000081525081526020016040518060400160405280600781526020017f234235363541370000000000000000000000000000000000000000000000000081525081526020016040518060400160405280600781526020017f234637434143390000000000000000000000000000000000000000000000000081525081526020016040518060400160405280600781526020017f2339353532353100000000000000000000000000000000000000000000000000815250815250600d90600862000bb192919062000d8b565b5034801562000bbf57600080fd5b506040518060400160405280600e81526020017f47656e746c65416761696e4e46540000000000000000000000000000000000008152506040518060400160405280600381526020017f47454e0000000000000000000000000000000000000000000000000000000000815250816000908051906020019062000c4492919062000c93565b50806001908051906020019062000c5d92919062000c93565b50505062000c77600762000c7d60201b620011e31760201c565b62000ee4565b6001816000016000828254019250508190555050565b82805462000ca19062000e7f565b90600052602060002090601f01602090048101928262000cc5576000855562000d11565b82601f1062000ce057805160ff191683800117855562000d11565b8280016001018555821562000d11579182015b8281111562000d1057825182559160200191906001019062000cf3565b5b50905062000d20919062000df2565b5090565b82805482825590600052602060002090810192821562000d78579160200282015b8281111562000d7757825182908051906020019062000d6692919062000c93565b509160200191906001019062000d45565b5b50905062000d87919062000e11565b5090565b82805482825590600052602060002090810192821562000ddf579160200282015b8281111562000dde57825182908051906020019062000dcd92919062000c93565b509160200191906001019062000dac565b5b50905062000dee919062000e11565b5090565b5b8082111562000e0d57600081600090555060010162000df3565b5090565b5b8082111562000e35576000818162000e2b919062000e39565b5060010162000e12565b5090565b50805462000e479062000e7f565b6000825580601f1062000e5b575062000e7c565b601f01602090049060005260206000209081019062000e7b919062000df2565b5b50565b6000600282049050600182168062000e9857607f821691505b6020821081141562000eaf5762000eae62000eb5565b5b50919050565b7f4e487b7100000000000000000000000000000000000000000000000000000000600052602260045260246000fd5b6139708062000ef46000396000f3fe608060405234801561001057600080fd5b506004361061012c5760003560e01c806370a08231116100ad578063c575757a11610071578063c575757a14610367578063c87b56dd14610397578063d5abeb01146103c7578063de9d132f146103e5578063e985e9c5146103ef5761012c565b806370a08231146102b157806395d89b41146102e1578063a22cb465146102ff578063b187301f1461031b578063b88d4fde1461034b5761012c565b806323b872dd116100f457806323b872dd146101e95780632de38d681461020557806342842e0e14610235578063514dc8c6146102515780636352211e146102815761012c565b806301ffc9a71461013157806306fdde0314610161578063081812fc1461017f578063095ea7b3146101af57806318160ddd146101cb575b600080fd5b61014b600480360381019061014691906125d2565b61041f565b6040516101589190612cd2565b60405180910390f35b610169610501565b6040516101769190612ced565b60405180910390f35b61019960048036038101906101949190612624565b610593565b6040516101a69190612c42565b60405180910390f35b6101c960048036038101906101c49190612596565b6105d9565b005b6101d36106f1565b6040516101e09190612eed565b60405180910390f35b61020360048036038101906101fe9190612490565b610702565b005b61021f600480360381019061021a9190612624565b610762565b60405161022c9190612ced565b60405180910390f35b61024f600480360381019061024a9190612490565b610880565b005b61026b60048036038101906102669190612624565b6108a0565b6040516102789190612ced565b60405180910390f35b61029b60048036038101906102969190612624565b6109be565b6040516102a89190612c42565b60405180910390f35b6102cb60048036038101906102c6919061242b565b610a70565b6040516102d89190612eed565b60405180910390f35b6102e9610b28565b6040516102f69190612ced565b60405180910390f35b6103196004803603810190610314919061255a565b610bba565b005b61033560048036038101906103309190612624565b610bd0565b6040516103429190612ced565b60405180910390f35b610365600480360381019061036091906124df565b610cee565b005b610381600480360381019061037c9190612624565b610d50565b60405161038e9190612ced565b60405180910390f35b6103b160048036038101906103ac9190612624565b610e6e565b6040516103be9190612ced565b60405180910390f35b6103cf610f81565b6040516103dc9190612eed565b60405180910390f35b6103ed610f86565b005b61040960048036038101906104049190612454565b61114f565b6040516104169190612cd2565b60405180910390f35b60007f80ac58cd000000000000000000000000000000000000000000000000000000007bffffffffffffffffffffffffffffffffffffffffffffffffffffffff1916827bffffffffffffffffffffffffffffffffffffffffffffffffffffffff191614806104ea57507f5b5e139f000000000000000000000000000000000000000000000000000000007bffffffffffffffffffffffffffffffffffffffffffffffffffffffff1916827bffffffffffffffffffffffffffffffffffffffffffffffffffffffff1916145b806104fa57506104f9826111f9565b5b9050919050565b60606000805461051090613181565b80601f016020809104026020016040519081016040528092919081815260200182805461053c90613181565b80156105895780601f1061055e57610100808354040283529160200191610589565b820191906000526020600020905b81548152906001019060200180831161056c57829003601f168201915b5050505050905090565b600061059e82611263565b6004600083815260200190815260200160002060009054906101000a900473ffffffffffffffffffffffffffffffffffffffff169050919050565b60006105e4826109be565b90508073ffffffffffffffffffffffffffffffffffffffff168373ffffffffffffffffffffffffffffffffffffffff161415610655576040517f08c379a000000000000000000000000000000000000000000000000000000000815260040161064c90612ead565b60405180910390fd5b8073ffffffffffffffffffffffffffffffffffffffff166106746112ae565b73ffffffffffffffffffffffffffffffffffffffff1614806106a357506106a28161069d6112ae565b61114f565b5b6106e2576040517f08c379a00000000000000000000000000000000000000000000000000000000081526004016106d990612e2d565b60405180910390fd5b6106ec83836112b6565b505050565b60006106fd600761136f565b905090565b61071361070d6112ae565b8261137d565b610752576040517f08c379a000000000000000000000000000000000000000000000000000000000815260040161074990612ecd565b60405180910390fd5b61075d838383611412565b505050565b6060600061079661077284611679565b6040516020016107829190612b53565b604051602081830303815290604052611826565b9050600a80549050816107a9919061322d565b9050600a81815481106107e5577f4e487b7100000000000000000000000000000000000000000000000000000000600052603260045260246000fd5b9060005260206000200180546107fa90613181565b80601f016020809104026020016040519081016040528092919081815260200182805461082690613181565b80156108735780601f1061084857610100808354040283529160200191610873565b820191906000526020600020905b81548152906001019060200180831161085657829003601f168201915b5050505050915050919050565b61089b83838360405180602001604052806000815250610cee565b505050565b606060006108d46108b084611679565b6040516020016108c09190612c20565b604051602081830303815290604052611826565b9050600d80549050816108e7919061322d565b9050600d8181548110610923577f4e487b7100000000000000000000000000000000000000000000000000000000600052603260045260246000fd5b90600052602060002001805461093890613181565b80601f016020809104026020016040519081016040528092919081815260200182805461096490613181565b80156109b15780601f10610986576101008083540402835291602001916109b1565b820191906000526020600020905b81548152906001019060200180831161099457829003601f168201915b5050505050915050919050565b6000806002600084815260200190815260200160002060009054906101000a900473ffffffffffffffffffffffffffffffffffffffff169050600073ffffffffffffffffffffffffffffffffffffffff168173ffffffffffffffffffffffffffffffffffffffff161415610a67576040517f08c379a0000000000000000000000000000000000000000000000000000000008152600401610a5e90612e8d565b60405180910390fd5b80915050919050565b60008073ffffffffffffffffffffffffffffffffffffffff168273ffffffffffffffffffffffffffffffffffffffff161415610ae1576040517f08c379a0000000000000000000000000000000000000000000000000000000008152600401610ad890612ded565b60405180910390fd5b600360008373ffffffffffffffffffffffffffffffffffffffff1673ffffffffffffffffffffffffffffffffffffffff168152602001908152602001600020549050919050565b606060018054610b3790613181565b80601f0160208091040260200160405190810160405280929190818152602001828054610b6390613181565b8015610bb05780601f10610b8557610100808354040283529160200191610bb0565b820191906000526020600020905b815481529060010190602001808311610b9357829003601f168201915b5050505050905090565b610bcc610bc56112ae565b8383611859565b5050565b60606000610c04610be084611679565b604051602001610bf09190612b75565b604051602081830303815290604052611826565b9050600b8054905081610c17919061322d565b9050600b8181548110610c53577f4e487b7100000000000000000000000000000000000000000000000000000000600052603260045260246000fd5b906000526020600020018054610c6890613181565b80601f0160208091040260200160405190810160405280929190818152602001828054610c9490613181565b8015610ce15780601f10610cb657610100808354040283529160200191610ce1565b820191906000526020600020905b815481529060010190602001808311610cc457829003601f168201915b5050505050915050919050565b610cff610cf96112ae565b8361137d565b610d3e576040517f08c379a0000000000000000000000000000000000000000000000000000000008152600401610d3590612ecd565b60405180910390fd5b610d4a848484846119c6565b50505050565b60606000610d84610d6084611679565b604051602001610d709190612b97565b604051602081830303815290604052611826565b9050600c8054905081610d97919061322d565b9050600c8181548110610dd3577f4e487b7100000000000000000000000000000000000000000000000000000000600052603260045260246000fd5b906000526020600020018054610de890613181565b80601f0160208091040260200160405190810160405280929190818152602001828054610e1490613181565b8015610e615780601f10610e3657610100808354040283529160200191610e61565b820191906000526020600020905b815481529060010190602001808311610e4457829003601f168201915b5050505050915050919050565b6060610e7982611263565b6000600660008481526020019081526020016000208054610e9990613181565b80601f0160208091040260200160405190810160405280929190818152602001828054610ec590613181565b8015610f125780601f10610ee757610100808354040283529160200191610f12565b820191906000526020600020905b815481529060010190602001808311610ef557829003601f168201915b505050505090506000610f23611a22565b9050600081511415610f39578192505050610f7c565b600082511115610f6e578082604051602001610f56929190612ab5565b60405160208183030381529060405292505050610f7c565b610f7784611a39565b925050505b919050565b601981565b6019610f906106f1565b1115610fd1576040517f08c379a0000000000000000000000000000000000000000000000000000000008152600401610fc890612e6d565b60405180910390fd5b6000610fdd600761136f565b90506000610fea82610762565b90506000610ff783610bd0565b9050600061100484610d50565b90506000611011856108a0565b9050600084848460405160200161102a93929190612ad9565b604051602081830303815290604052905060006008836009846040516020016110569493929190612b0a565b6040516020818303038152906040529050600061109b8361107684611aa1565b604051602001611087929190612bb9565b604051602081830303815290604052611aa1565b90506000816040516020016110b09190612bfe565b60405160208183030381529060405290506110ca81611c5f565b6110d4338a611cf8565b6110de8982611d16565b6110e860076111e3565b7f1805e33b4922dde682d9c92ef9cc943d42dabc651dd055d450069b4ef78836c4338a604051611119929190612ca9565b60405180910390a16111446040518060600160405280602581526020016138d6602591398a33611d8a565b505050505050505050565b6000600560008473ffffffffffffffffffffffffffffffffffffffff1673ffffffffffffffffffffffffffffffffffffffff16815260200190815260200160002060008373ffffffffffffffffffffffffffffffffffffffff1673ffffffffffffffffffffffffffffffffffffffff16815260200190815260200160002060009054906101000a900460ff16905092915050565b6001816000016000828254019250508190555050565b60007f01ffc9a7000000000000000000000000000000000000000000000000000000007bffffffffffffffffffffffffffffffffffffffffffffffffffffffff1916827bffffffffffffffffffffffffffffffffffffffffffffffffffffffff1916149050919050565b61126c81611e29565b6112ab576040517f08c379a00000000000000000000000000000000000000000000000000000000081526004016112a290612e8d565b60405180910390fd5b50565b600033905090565b816004600083815260200190815260200160002060006101000a81548173ffffffffffffffffffffffffffffffffffffffff021916908373ffffffffffffffffffffffffffffffffffffffff160217905550808273ffffffffffffffffffffffffffffffffffffffff16611329836109be565b73ffffffffffffffffffffffffffffffffffffffff167f8c5be1e5ebec7d5bd14f71427d1e84f3dd0314c0f7b2291e5b200ac8c7c3b92560405160405180910390a45050565b600081600001549050919050565b600080611389836109be565b90508073ffffffffffffffffffffffffffffffffffffffff168473ffffffffffffffffffffffffffffffffffffffff1614806113cb57506113ca818561114f565b5b8061140957508373ffffffffffffffffffffffffffffffffffffffff166113f184610593565b73ffffffffffffffffffffffffffffffffffffffff16145b91505092915050565b8273ffffffffffffffffffffffffffffffffffffffff16611432826109be565b73ffffffffffffffffffffffffffffffffffffffff1614611488576040517f08c379a000000000000000000000000000000000000000000000000000000000815260040161147f90612d6d565b60405180910390fd5b600073ffffffffffffffffffffffffffffffffffffffff168273ffffffffffffffffffffffffffffffffffffffff1614156114f8576040517f08c379a00000000000000000000000000000000000000000000000000000000081526004016114ef90612dad565b60405180910390fd5b611503838383611e95565b61150e6000826112b6565b6001600360008573ffffffffffffffffffffffffffffffffffffffff1673ffffffffffffffffffffffffffffffffffffffff168152602001908152602001600020600082825461155e9190613097565b925050819055506001600360008473ffffffffffffffffffffffffffffffffffffffff1673ffffffffffffffffffffffffffffffffffffffff16815260200190815260200160002060008282546115b59190612fb6565b92505081905550816002600083815260200190815260200160002060006101000a81548173ffffffffffffffffffffffffffffffffffffffff021916908373ffffffffffffffffffffffffffffffffffffffff160217905550808273ffffffffffffffffffffffffffffffffffffffff168473ffffffffffffffffffffffffffffffffffffffff167fddf252ad1be2c89b69c2b068fc378daa952ba7f163c4a11628f55a4df523b3ef60405160405180910390a4611674838383611e9a565b505050565b606060008214156116c1576040518060400160405280600181526020017f30000000000000000000000000000000000000000000000000000000000000008152509050611821565b600082905060005b600082146116f35780806116dc906131e4565b915050600a826116ec919061300c565b91506116c9565b60008167ffffffffffffffff811115611735577f4e487b7100000000000000000000000000000000000000000000000000000000600052604160045260246000fd5b6040519080825280601f01601f1916602001820160405280156117675781602001600182028036833780820191505090505b5090505b6000851461181a576001826117809190613097565b9150600a8561178f919061322d565b603061179b9190612fb6565b60f81b8183815181106117d7577f4e487b7100000000000000000000000000000000000000000000000000000000600052603260045260246000fd5b60200101907effffffffffffffffffffffffffffffffffffffffffffffffffffffffffffff1916908160001a905350600a85611813919061300c565b945061176b565b8093505050505b919050565b6000816040516020016118399190612a9e565b6040516020818303038152906040528051906020012060001c9050919050565b8173ffffffffffffffffffffffffffffffffffffffff168373ffffffffffffffffffffffffffffffffffffffff1614156118c8576040517f08c379a00000000000000000000000000000000000000000000000000000000081526004016118bf90612dcd565b60405180910390fd5b80600560008573ffffffffffffffffffffffffffffffffffffffff1673ffffffffffffffffffffffffffffffffffffffff16815260200190815260200160002060008473ffffffffffffffffffffffffffffffffffffffff1673ffffffffffffffffffffffffffffffffffffffff16815260200190815260200160002060006101000a81548160ff0219169083151502179055508173ffffffffffffffffffffffffffffffffffffffff168373ffffffffffffffffffffffffffffffffffffffff167f17307eab39ab6107e8899845ad3d59bd9653f200f220920489ca2b5937696c31836040516119b99190612cd2565b60405180910390a3505050565b6119d1848484611412565b6119dd84848484611e9f565b611a1c576040517f08c379a0000000000000000000000000000000000000000000000000000000008152600401611a1390612d4d565b60405180910390fd5b50505050565b606060405180602001604052806000815250905090565b6060611a4482611263565b6000611a4e611a22565b90506000815111611a6e5760405180602001604052806000815250611a99565b80611a7884611679565b604051602001611a89929190612ab5565b6040516020818303038152906040525b915050919050565b60606000825190506000811415611aca5760405180602001604052806000815250915050611c5a565b60006003600283611adb9190612fb6565b611ae5919061300c565b6004611af1919061303d565b90506000602082611b029190612fb6565b67ffffffffffffffff811115611b41577f4e487b7100000000000000000000000000000000000000000000000000000000600052604160045260246000fd5b6040519080825280601f01601f191660200182016040528015611b735781602001600182028036833780820191505090505b50905060006040518060600160405280604081526020016138fb604091399050600181016020830160005b86811015611c175760038101905062ffffff818a015116603f8160121c168401518060081b905060ff603f83600c1c1686015116810190508060081b905060ff603f8360061c1686015116810190508060081b905060ff603f831686015116810190508060e01b90508084526004840193505050611b9e565b506003860660018114611c315760028114611c4157611c4c565b613d3d60f01b6002830352611c4c565b603d60f81b60018303525b508484525050819450505050505b919050565b611cf581604051602401611c739190612ced565b6040516020818303038152906040527f41304fac000000000000000000000000000000000000000000000000000000007bffffffffffffffffffffffffffffffffffffffffffffffffffffffff19166020820180517bffffffffffffffffffffffffffffffffffffffffffffffffffffffff8381831617835250505050612036565b50565b611d1282826040518060200160405280600081525061205f565b5050565b611d1f82611e29565b611d5e576040517f08c379a0000000000000000000000000000000000000000000000000000000008152600401611d5590612e0d565b60405180910390fd5b80600660008481526020019081526020016000209080519060200190611d859291906122b7565b505050565b611e24838383604051602401611da293929190612d0f565b6040516020818303038152906040527fe3849f79000000000000000000000000000000000000000000000000000000007bffffffffffffffffffffffffffffffffffffffffffffffffffffffff19166020820180517bffffffffffffffffffffffffffffffffffffffffffffffffffffffff8381831617835250505050612036565b505050565b60008073ffffffffffffffffffffffffffffffffffffffff166002600084815260200190815260200160002060009054906101000a900473ffffffffffffffffffffffffffffffffffffffff1673ffffffffffffffffffffffffffffffffffffffff1614159050919050565b505050565b505050565b6000611ec08473ffffffffffffffffffffffffffffffffffffffff166120ba565b15612029578373ffffffffffffffffffffffffffffffffffffffff1663150b7a02611ee96112ae565b8786866040518563ffffffff1660e01b8152600401611f0b9493929190612c5d565b602060405180830381600087803b158015611f2557600080fd5b505af1925050508015611f5657506040513d601f19601f82011682018060405250810190611f5391906125fb565b60015b611fd9573d8060008114611f86576040519150601f19603f3d011682016040523d82523d6000602084013e611f8b565b606091505b50600081511415611fd1576040517f08c379a0000000000000000000000000000000000000000000000000000000008152600401611fc890612d4d565b60405180910390fd5b805181602001fd5b63150b7a0260e01b7bffffffffffffffffffffffffffffffffffffffffffffffffffffffff1916817bffffffffffffffffffffffffffffffffffffffffffffffffffffffff19161491505061202e565b600190505b949350505050565b60008151905060006a636f6e736f6c652e6c6f679050602083016000808483855afa5050505050565b61206983836120dd565b6120766000848484611e9f565b6120b5576040517f08c379a00000000000000000000000000000000000000000000000000000000081526004016120ac90612d4d565b60405180910390fd5b505050565b6000808273ffffffffffffffffffffffffffffffffffffffff163b119050919050565b600073ffffffffffffffffffffffffffffffffffffffff168273ffffffffffffffffffffffffffffffffffffffff16141561214d576040517f08c379a000000000000000000000000000000000000000000000000000000000815260040161214490612e4d565b60405180910390fd5b61215681611e29565b15612196576040517f08c379a000000000000000000000000000000000000000000000000000000000815260040161218d90612d8d565b60405180910390fd5b6121a260008383611e95565b6001600360008473ffffffffffffffffffffffffffffffffffffffff1673ffffffffffffffffffffffffffffffffffffffff16815260200190815260200160002060008282546121f29190612fb6565b92505081905550816002600083815260200190815260200160002060006101000a81548173ffffffffffffffffffffffffffffffffffffffff021916908373ffffffffffffffffffffffffffffffffffffffff160217905550808273ffffffffffffffffffffffffffffffffffffffff16600073ffffffffffffffffffffffffffffffffffffffff167fddf252ad1be2c89b69c2b068fc378daa952ba7f163c4a11628f55a4df523b3ef60405160405180910390a46122b360008383611e9a565b5050565b8280546122c390613181565b90600052602060002090601f0160209004810192826122e5576000855561232c565b82601f106122fe57805160ff191683800117855561232c565b8280016001018555821561232c579182015b8281111561232b578251825591602001919060010190612310565b5b509050612339919061233d565b5090565b5b8082111561235657600081600090555060010161233e565b5090565b600061236d61236884612f2d565b612f08565b90508281526020810184848401111561238557600080fd5b61239084828561313f565b509392505050565b6000813590506123a781613879565b92915050565b6000813590506123bc81613890565b92915050565b6000813590506123d1816138a7565b92915050565b6000815190506123e6816138a7565b92915050565b600082601f8301126123fd57600080fd5b813561240d84826020860161235a565b91505092915050565b600081359050612425816138be565b92915050565b60006020828403121561243d57600080fd5b600061244b84828501612398565b91505092915050565b6000806040838503121561246757600080fd5b600061247585828601612398565b925050602061248685828601612398565b9150509250929050565b6000806000606084860312156124a557600080fd5b60006124b386828701612398565b93505060206124c486828701612398565b92505060406124d586828701612416565b9150509250925092565b600080600080608085870312156124f557600080fd5b600061250387828801612398565b945050602061251487828801612398565b935050604061252587828801612416565b925050606085013567ffffffffffffffff81111561254257600080fd5b61254e878288016123ec565b91505092959194509250565b6000806040838503121561256d57600080fd5b600061257b85828601612398565b925050602061258c858286016123ad565b9150509250929050565b600080604083850312156125a957600080fd5b60006125b785828601612398565b92505060206125c885828601612416565b9150509250929050565b6000602082840312156125e457600080fd5b60006125f2848285016123c2565b91505092915050565b60006020828403121561260d57600080fd5b600061261b848285016123d7565b91505092915050565b60006020828403121561263657600080fd5b600061264484828501612416565b91505092915050565b612656816130cb565b82525050565b612665816130dd565b82525050565b600061267682612f73565b6126808185612f89565b935061269081856020860161314e565b6126998161331a565b840191505092915050565b60006126af82612f7e565b6126b98185612f9a565b93506126c981856020860161314e565b6126d28161331a565b840191505092915050565b60006126e882612f7e565b6126f28185612fab565b935061270281856020860161314e565b80840191505092915050565b6000815461271b81613181565b6127258186612fab565b94506001821660008114612740576001811461275157612784565b60ff19831686528186019350612784565b61275a85612f5e565b60005b8381101561277c5781548189015260018201915060208101905061275d565b838801955050505b50505092915050565b600061279a603283612f9a565b91506127a58261332b565b604082019050919050565b60006127bd602583612f9a565b91506127c88261337a565b604082019050919050565b60006127e0601c83612f9a565b91506127eb826133c9565b602082019050919050565b6000612803602483612f9a565b915061280e826133f2565b604082019050919050565b6000612826601983612f9a565b915061283182613441565b602082019050919050565b6000612849606383612fab565b91506128548261346a565b606382019050919050565b600061286c600a83612fab565b915061287782613505565b600a82019050919050565b600061288f600d83612fab565b915061289a8261352e565b600d82019050919050565b60006128b2602983612f9a565b91506128bd82613557565b604082019050919050565b60006128d5600b83612fab565b91506128e0826135a6565b600b82019050919050565b60006128f8600a83612fab565b9150612903826135cf565b600a82019050919050565b600061291b602e83612f9a565b9150612926826135f8565b604082019050919050565b600061293e600283612fab565b915061294982613647565b600282019050919050565b6000612961603e83612f9a565b915061296c82613670565b604082019050919050565b6000612984602083612f9a565b915061298f826136bf565b602082019050919050565b60006129a7602283612f9a565b91506129b2826136e8565b604082019050919050565b60006129ca600a83612fab565b91506129d582613737565b600a82019050919050565b60006129ed601883612f9a565b91506129f882613760565b602082019050919050565b6000612a10602183612f9a565b9150612a1b82613789565b604082019050919050565b6000612a33601d83612fab565b9150612a3e826137d8565b601d82019050919050565b6000612a56600583612fab565b9150612a6182613801565b600582019050919050565b6000612a79602e83612f9a565b9150612a848261382a565b604082019050919050565b612a9881613135565b82525050565b6000612aaa82846126dd565b915081905092915050565b6000612ac182856126dd565b9150612acd82846126dd565b91508190509392505050565b6000612ae582866126dd565b9150612af182856126dd565b9150612afd82846126dd565b9150819050949350505050565b6000612b16828761270e565b9150612b2282866126dd565b9150612b2e828561270e565b9150612b3a82846126dd565b9150612b4582612882565b915081905095945050505050565b6000612b5e8261285f565b9150612b6a82846126dd565b915081905092915050565b6000612b80826128c8565b9150612b8c82846126dd565b915081905092915050565b6000612ba2826128eb565b9150612bae82846126dd565b915081905092915050565b6000612bc4826129bd565b9150612bd082856126dd565b9150612bdb8261283c565b9150612be782846126dd565b9150612bf282612931565b91508190509392505050565b6000612c0982612a26565b9150612c1582846126dd565b915081905092915050565b6000612c2b82612a49565b9150612c3782846126dd565b915081905092915050565b6000602082019050612c57600083018461264d565b92915050565b6000608082019050612c72600083018761264d565b612c7f602083018661264d565b612c8c6040830185612a8f565b8181036060830152612c9e818461266b565b905095945050505050565b6000604082019050612cbe600083018561264d565b612ccb6020830184612a8f565b9392505050565b6000602082019050612ce7600083018461265c565b92915050565b60006020820190508181036000830152612d0781846126a4565b905092915050565b60006060820190508181036000830152612d2981866126a4565b9050612d386020830185612a8f565b612d45604083018461264d565b949350505050565b60006020820190508181036000830152612d668161278d565b9050919050565b60006020820190508181036000830152612d86816127b0565b9050919050565b60006020820190508181036000830152612da6816127d3565b9050919050565b60006020820190508181036000830152612dc6816127f6565b9050919050565b60006020820190508181036000830152612de681612819565b9050919050565b60006020820190508181036000830152612e06816128a5565b9050919050565b60006020820190508181036000830152612e268161290e565b9050919050565b60006020820190508181036000830152612e4681612954565b9050919050565b60006020820190508181036000830152612e6681612977565b9050919050565b60006020820190508181036000830152612e868161299a565b9050919050565b60006020820190508181036000830152612ea6816129e0565b9050919050565b60006020820190508181036000830152612ec681612a03565b9050919050565b60006020820190508181036000830152612ee681612a6c565b9050919050565b6000602082019050612f026000830184612a8f565b92915050565b6000612f12612f23565b9050612f1e82826131b3565b919050565b6000604051905090565b600067ffffffffffffffff821115612f4857612f476132eb565b5b612f518261331a565b9050602081019050919050565b60008190508160005260206000209050919050565b600081519050919050565b600081519050919050565b600082825260208201905092915050565b600082825260208201905092915050565b600081905092915050565b6000612fc182613135565b9150612fcc83613135565b9250827fffffffffffffffffffffffffffffffffffffffffffffffffffffffffffffffff038211156130015761300061325e565b5b828201905092915050565b600061301782613135565b915061302283613135565b9250826130325761303161328d565b5b828204905092915050565b600061304882613135565b915061305383613135565b9250817fffffffffffffffffffffffffffffffffffffffffffffffffffffffffffffffff048311821515161561308c5761308b61325e565b5b828202905092915050565b60006130a282613135565b91506130ad83613135565b9250828210156130c0576130bf61325e565b5b828203905092915050565b60006130d682613115565b9050919050565b60008115159050919050565b60007fffffffff0000000000000000000000000000000000000000000000000000000082169050919050565b600073ffffffffffffffffffffffffffffffffffffffff82169050919050565b6000819050919050565b82818337600083830152505050565b60005b8381101561316c578082015181840152602081019050613151565b8381111561317b576000848401525b50505050565b6000600282049050600182168061319957607f821691505b602082108114156131ad576131ac6132bc565b5b50919050565b6131bc8261331a565b810181811067ffffffffffffffff821117156131db576131da6132eb565b5b80604052505050565b60006131ef82613135565b91507fffffffffffffffffffffffffffffffffffffffffffffffffffffffffffffffff8214156132225761322161325e565b5b600182019050919050565b600061323882613135565b915061324383613135565b9250826132535761325261328d565b5b828206905092915050565b7f4e487b7100000000000000000000000000000000000000000000000000000000600052601160045260246000fd5b7f4e487b7100000000000000000000000000000000000000000000000000000000600052601260045260246000fd5b7f4e487b7100000000000000000000000000000000000000000000000000000000600052602260045260246000fd5b7f4e487b7100000000000000000000000000000000000000000000000000000000600052604160045260246000fd5b6000601f19601f8301169050919050565b7f4552433732313a207472616e7366657220746f206e6f6e20455243373231526560008201527f63656976657220696d706c656d656e7465720000000000000000000000000000602082015250565b7f4552433732313a207472616e736665722066726f6d20696e636f72726563742060008201527f6f776e6572000000000000000000000000000000000000000000000000000000602082015250565b7f4552433732313a20746f6b656e20616c7265616479206d696e74656400000000600082015250565b7f4552433732313a207472616e7366657220746f20746865207a65726f2061646460008201527f7265737300000000000000000000000000000000000000000000000000000000602082015250565b7f4552433732313a20617070726f766520746f2063616c6c657200000000000000600082015250565b7f222c20226465736372697074696f6e223a20224120686967686c79206163636c60008201527f61696d656420636f6c6c656374696f6e206f6620737175617265732e222c202260208201527f696d616765223a2022646174613a696d6167652f7376672b786d6c3b6261736560408201527f36342c0000000000000000000000000000000000000000000000000000000000606082015250565b7f466972737420576f726400000000000000000000000000000000000000000000600082015250565b7f3c2f746578743e3c2f7376673e00000000000000000000000000000000000000600082015250565b7f4552433732313a2061646472657373207a65726f206973206e6f74206120766160008201527f6c6964206f776e65720000000000000000000000000000000000000000000000602082015250565b7f5365636f6e6420576f7264000000000000000000000000000000000000000000600082015250565b7f546869726420576f726400000000000000000000000000000000000000000000600082015250565b7f45524337323155524953746f726167653a2055524920736574206f66206e6f6e60008201527f6578697374656e7420746f6b656e000000000000000000000000000000000000602082015250565b7f227d000000000000000000000000000000000000000000000000000000000000600082015250565b7f4552433732313a20617070726f76652063616c6c6572206973206e6f7420746f60008201527f6b656e206f776e6572206e6f7220617070726f76656420666f7220616c6c0000602082015250565b7f4552433732313a206d696e7420746f20746865207a65726f2061646472657373600082015250565b7f4d4158204e756d626572206f66204e465473206d696e74656420536f7272792060008201527f3d28000000000000000000000000000000000000000000000000000000000000602082015250565b7f7b226e616d65223a202200000000000000000000000000000000000000000000600082015250565b7f4552433732313a20696e76616c696420746f6b656e2049440000000000000000600082015250565b7f4552433732313a20617070726f76616c20746f2063757272656e74206f776e6560008201527f7200000000000000000000000000000000000000000000000000000000000000602082015250565b7f646174613a6170706c69636174696f6e2f6a736f6e3b6261736536342c000000600082015250565b7f434f4c4f52000000000000000000000000000000000000000000000000000000600082015250565b7f4552433732313a2063616c6c6572206973206e6f7420746f6b656e206f776e6560008201527f72206e6f7220617070726f766564000000000000000000000000000000000000602082015250565b613882816130cb565b811461388d57600080fd5b50565b613899816130dd565b81146138a457600080fd5b50565b6138b0816130e9565b81146138bb57600080fd5b50565b6138c781613135565b81146138d257600080fd5b5056fe416e204e465420772f20494420257320686173206265656e206d696e74656420746f2025734142434445464748494a4b4c4d4e4f505152535455565758595a6162636465666768696a6b6c6d6e6f707172737475767778797a303132333435363738392b2fa26469706673582212203d53a3e8abb897b8b046ba7e66c18f7aba126ae43fe17f330cf95751d903279e64736f6c634300080100333c73766720786d6c6e733d27687474703a2f2f7777772e77332e6f72672f323030302f73766727207072657365727665417370656374526174696f3d27784d696e594d696e206d656574272076696577426f783d273020302033353020333530273e3c7374796c653e2e62617365207b2066696c6c3a2077686974653b20666f6e742d66616d696c793a2073657269663b20666f6e742d73697a653a20323470783b207d3c2f7374796c653e3c726563742077696474683d273130302527206865696768743d2731303025272066696c6c3d27272f3e3c7465787420783d273530252720793d273530252720636c6173733d27626173652720646f6d696e616e742d626173656c696e653d276d6964646c652720746578742d616e63686f723d276d6964646c65273e",
  "linkReferences": {},
  "deployedLinkReferences": {}
}